:020000020000FC
:1000000000C0089A109A01EC0EBD01E80DBD00E099
:1000100007BDF0E4E2E30191003009F4FACF06BD38
:10002000C1E11FEF1A951030E9F7CA95C030C9F742
:10003000F2CFFFFFFFFFFFFFFFFFFCF7EBEBE6E177
:10004000DAD5D0CEC7BDBBB6B6B1AFA8A5A39E9436
:100050009290908D8B88867F7A78757370706E6EB3
:100060006C6760605D5B58585858544F4C4A4A481A
:1000700048484845453E3C3C3939393737373730B1
:10008000302D2D2B2B2828282824242421211F1F04
:100090001F1C1C1A1A1A1A181815151515141313E3
:1000A000101010100E0E0E100C0C0C0C0C0909097F
:1000B00009090907070707070704040404040404DF
:1000C000040402020202020202020202020202020C
:1000D0000202020202020202020202020202020200
:1000E00002020202020202020202020202020202F0
:1000F00002020202020202020202020204040404D8
:10010000040707070707070909090C0C0C0E0E1056
:100110001010101515151518181A1C1C1C1F242159
:10012000242428282B2B2D3034373737393E3E40B6
:1001300043484A4F51565656585D60626470737515
:100140007C7F8181888D9094A0A5AAAFB8BDC2C7DD
:0E015000D0D5DCEDF4FCFFFFFFFFFFFFFF004A
:00000001FF
