:020000020000FC
:0200000008C036
:1000100025C0089A109A0EE003B908ED0CBF05E060
:1000200006BF01EC0EBD01E80DBD00E007BD01E01B
:100030000ABF7894F0E4EEE50191003009F4FACFBC
:1000400006BD08ED0CBF00E401BFA895889508ED3A
:100050000CBF01E401BFA8958895EECF189501016A
:10006000020305080B0F14191E242B313840485089
:10007000586169727B848D969EA7AFB7BFC7CED4F7
:10008000DBE1E6EBF0F4F7FAFCFDFEFFFEFDFCFA27
:10009000F7F4F0EBE6E1DBD4CEC7BFB7AFA79E968F
:1000A0008D847B7269615850484038312B241E1969
:0A00B000140F0B0805030201000005
:00000001FF
