:020000020000FC
:1000000000C0089A109A01EC0EBD01E80DBD00E099
:1000100007BD10E0F0E4E8E3E10F13950081003044
:1000200009F410E006BD32E32FEF2A952030E9F7FE
:100030003A953030C9F7EECF0101020305080B0FE6
:1000400014191E242B3138404850586169727B8442
:100050008D969EA7AFB7BFC7CED4DBE1E6EBF0F439
:10006000F7FAFCFDFEFFFEFDFCFAF7F4F0EBE6E12B
:10007000DBD4CEC7BFB7AFA79E968D847B72696174
:100080005850484038312B241E19140F0B08050313
:040090000201000069
:00000001FF
